:0400000000010137C3
:04000100FFC1011327
:0400020000A00293C5
:0400030000100313D3
:040004007EA0039344
:04000500000284333E
:04000600FFF30E13E3
:040007007D000E93D7
:0400080041D38EB39F
:0400090001E00F13F0
:04000A00FFC101131E
:04000B0001E12023CC
:04000C00FFC101131C
:04000D0001C12023EA
:04000E00044000EFBB
:04000F0000012F03BA
:040010000041011397
:0400110016D00F9363
:04001200FFC1011316
:0400130001F12023B4
:04001400FFC1011314
:0400150001D12023D2
:04001600024000EFB5
:0400170000012F8332
:04001800004101138F
:04001900000402B32A
:04001A0001E282B3CA
:04001B0001F282B3B9
:04001C00FFC101130C
:04001D00005120234B
:04001E00FFFFFFFFE2
:04001F000001228337
:040020000041011387
:0400210000012303B4
:040022000041011385
:040023000000039343
:0400240000028E63E5
:040025000012FE13B4
:04002600000E046361
:04002700006383B33C
:04002800001313139B
:040029000012D2935C
:04002A00FE9FF06FD6
:04002B00FFC10113FD
:04002C00007120231C
:04002D0000008067E8
:043FFD000000001AA6
:043FFE000000251C7E
:00000001FF
